:020000040800F2
:1000000048370020AD0200087D3A0008DD030008F3
:10001000793A0008F5030008335200080000000098
:10002000000000000000000000000000B9410008CE
:1000300061050008000000007F3A00080D43000839
:10004000C7020008C7020008C7020008C70200086C
:10005000C7020008C7020008C7020008C70200085C
:10006000C7020008C7020008C7020008C70200084C
:10007000C7020008C7020008C7020008C70200083C
:10008000C7020008C7020008C7020008C70200082C
:10009000C7020008C7020008C7020008C70200081C
:1000A000C7020008C7020008C7020008C70200080C
:1000B00041460008C7020008C7020008C70200083E
:1000C000C7020008C7020008C7020008C7020008EC
:1000D000C7020008894F0008C7020008994F0008AE
:1000E000C7020008C702000800000000C70200089D
:1000F000C7020008C7020008C7020008C7020008BC
:10010000C7020008B53E0008C7020008C702000881
:10011000C7020008C7020008C7020008C70200089B
:10012000C7020008C7020008C7020008C70200088B
:10013000C7020008C7020008C7020008C70200087B
:1001400000000000000000000000000000000000AF
:10015000C7020008C7020008C7020008C70200085B
:10016000C7020008C7020008C7020008C70200084B
:10017000C7020008C7020008C7020008000000000C
:10018000C7020008C7020008C7020008C70200082B
:10019000C7020008C7020008C7020008C70200081B
:1001A000C7020008C7020008C7020008C70200080B
:1001B000C7020008C7020008C7020008C7020008FB
:1001C000C7020008C7020008C7020008C7020008EB
:1001D000C7020008C7020008C7020008C7020008DB
:1001E000C7020008C7020008C7020008C7020008CB
:1001F000C7020008C7020008C7020008C7020008BB
:10020000C7020008C7020008C7020008C7020008AA
:10021000C7020008C7020008C7020008C70200089A
:10022000C7020008C7020008C7020008000000005B
:10023000C7020008C702000800000000C70200084B
:10024000C7020008C7020008C7020008C70200086A
:10025000C7020008C7020008C7020008C70200085A
:10026000C7020008C7020008C7020008C70200084A
:10027000C7020008C7020008C7020008000000000B
:10028000C7020008C7020008C702000800000000FB
:1002900000000000C7020008DFF80CD000F08CF866
:1002A00000480047B35C00084837002006488047F4
:1002B00006480047FEE7FEE7FEE7FEE7FEE7FEE74B
:1002C000FEE7FEE7FEE7FEE73D450008990200086D
:1002D0002DE9F05F0546002092469B46884606467B
:1002E000814640241BE0284641464746224600F00E
:1002F00053F853465A46C01A914110D31146184636
:10030000224600F03AF82D1A67EB01084F462246C4
:100310000120002100F031F817EB00094E41201EAA
:10032000A4F10104DFDC484631462A464346BDE8D5
:10033000F09F40EA01039B0703D009E008C9121FA0
:1003400008C0042AFAD203E011F8013B00F8013B8F
:10035000521EF9D27047D2B201E000F8012B491EBB
:10036000FBD270470022F6E710B513460A46044652
:100370001946FFF7F0FF204610BD202A04DB203A83
:1003800000FA02F1002070479140C2F1200320FAE8
:1003900003F3194390407047202A04DB203A21FAE6
:1003A00002F00021704721FA02F3D040C2F120028E
:1003B0009140084319467047064C074D06E0E06837
:1003C00040F0010394E8070098471034AC42F6D39C
:1003D000FFF766FF285D0008485D00081EF0040F67
:1003E0000CBFEFF30880EFF3098003F011B97047F9
:1003F0007047704700BFFEE710B500BF2A4800688D
:1004000000F4003000B115E0BFF34F8FBFF36F8FE2
:10041000002026490860BFF34F8FBFF36F8F22483B
:10042000006840F4003020490860BFF34F8FBFF3ED
:100430006F8F00BF00BF1C4B1B6803F4803303B1F8
:1004400030E00023184C70342360BFF34F8F231F1C
:100450001868C0F34E3100BFC0F3C90200BF43F6B5
:10046000E07303EA41134FF0404404EA82742343EB
:100470000E4C1034236000BF00BF131EA2F1010216
:10048000EDD10B1EA1F10101E6D1BFF34F8F064B59
:100490001B6843F48033044C2360BFF34F8FBFF3DA
:1004A0006F8F00BF10BD000014ED00E050EF00E0C2
:1004B000F0B505460E460024AF1905E015F8011BFE
:1004C000A0B204F09DFE0446BD42F7D3A0B20021C5
:1004D00004F096FE04462046002104F091FE0446F6
:1004E0002046F0BD10B504460CB9124810BD012CD1
:1004F00001D10020FAE7022C01D10F48F6E7032CC6
:1005000001D10020F2E7042C01D10020EEE7052CF8
:1005100001D10020EAE7062C01D10020E6E7072CF4
:1005200001D10020E2E74FF48E7104A000F024F81E
:100530000020DBE794060020C00E00202E2E5C2E4B
:100540002E5C557365725C6273705C7372635C627F
:1005500073705F756172745F6669666F2E63000009
:10056000704700004FF00161024804F065FE03F09F
:10057000EFF900004000002001B9704700BFFEE71E
:1005800010B501F001037BB1134BDB6823F4E66384
:10059000114CE36042F0040343EA002343F080037C
:1005A000E46823430C4CE36001F00203022B12D1F8
:1005B0000A4B1B6823F4E663074CC4F80C3142F085
:1005C000040343EA002343F08003D4F80C4123439F
:1005D000014CC4F80C3110BD002000520C21005217
:1005E00001F00302032A1BD1234AD26822F0300211
:1005F000214BDA60214A126822F03002C3F80C2144
:100600001A46D2680243DA601A46D2F80C21024335
:10061000C3F80C211A46926942F010029A6129E04F
:1006200001F0010272B1144AD26822F03002124B7A
:10063000DA601A46D2680243DA601A46D26842F09B
:100640008802DA6001F00202022A13D10B4A126812
:1006500022F03002084BC3F80C211A46D2F80C21C4
:100660000243C3F80C211A46D2F80C2142F088024A
:10067000C3F80C2170470000002000520C210052EA
:100680002DE9F04106460F460424354800693549F6
:1006900000EA010500F09AFB8046022F06D132489D
:1006A00000683249084040F00045314C0BE0701CB6
:1006B00048B100F08BFBA0EB0800B04200D816B99F
:1006C0000320BDE8F0812B482040A04208D12448F7
:1006D00000692040A04201D101200DE000200BE084
:1006E0002148006824F00041084024F0004188427D
:1006F00001D1012000E000200028D8D125F00040E1
:1007000090B11D48806928431B49886119482840D9
:10071000A84202D11248456104E025F00040124988
:10072000091D08600120CCE7012F0AD10C4800699F
:1007300000F48030B0F5803F0FD13804084948619B
:100740000BE00948006800F48030B0F5803F04D128
:100750004FF480300449091D08600020B1E7000013
:10076000002000520000EE17102100520000EE970A
:10077000040000800F00EF1FEC16002070B5044647
:10078000B3F5804F13D1D1E9000540EA05108D681B
:1007900040EA05208D6928438D8940EA054054F8D8
:1007A0002250064E3540284344F8220003E06FF003
:1007B000704044F82200002070BD00000000F0CF1F
:1007C00070B50246086852F8200020F001000E685B
:1007D00042F826008868082801D1402500E000255D
:1007E000486828438E683043CE6830430E693043F2
:1007F0004E6930438E693043CE6930430E6A3043D0
:100800004E6A30438E6A3043CE6A40EA0603086B74
:100810000343486B0343886B0343114C44F4801437
:1008200044F4001444F4E024086852F82000A04383
:1008300018430E6842F82600086BB0F5801F07D1F8
:10084000086828B1106820F480100E6B30431060E7
:10085000086818B110684E6B30431060002070BDFE
:100860007FFB080030B50346D1E9000540EA0510DA
:100870008D6840EA05208D8940EA0545088A401EBA
:1008800045EA0055087D801E45EA00608D692843D1
:10089000551C53F8255005F040452843551C43F896
:1008A0002500186800F48010B0F5801F0BD158683F
:1008B00020F47004088A401E44EA0054586820F46A
:1008C000700020435860002030BD000003480068DD
:1008D00040F0010001490860704700002004005802
:1008E0002DE9F04104460E46002700BF4848007D30
:1008F000012802D10220BDE8F08101204449087599
:1009000000BF00208861207900F0010030B1012192
:100910004CF25030FFF7B4FE00B10127207900F00F
:100920000200022806D102214CF25030FFF7A8FE47
:1009300000B10127002F63D12068012828D1616808
:100940002069FFF74DFE207900F0010060B1012120
:100950004CF25030FFF794FE00B101272D48C068DB
:1009600020F008002B49C860207900F0020002281E
:1009700046D102214CF25030FFF782FE00B1012730
:100980002548006820F008002249C1F80C0137E032
:100990004FF0FF303060A5682CE02846226961687E
:1009A000FFF7EEFD207900F0010060B101214CF26B
:1009B0005030FFF765FE07461648C06840F20471E4
:1009C00088431449C860207900F0020002280DD144
:1009D00002214CF25030FFF753FE07460E480068E4
:1009E00040F2047188430B49C1F80C010FB1356026
:1009F00005E06D1CD4E902100844A842CDD800BF20
:100A000000BF00200249087500BF384673E70000A8
:100A1000EC160020002000520C2100520E48C06845
:100A200040F001000C49C8600846C06800F00100B1
:100A300008B9012070470948006840F001000649E4
:100A4000C1F80C010548006800F0010008B9012058
:100A5000F0E70020EEE70000002000520C210052D9
:100A60002DE9F05F83460C461746A046B9464FF085
:100A7000080A00BF3548007D012802D10220BDE8E8
:100A8000F09F01203149087500BFB4F1006F04D315
:100A9000B4F1016F01D2012509E0B4F1016F04D373
:100AA000B4F1026F01D2022501E00120E7E7002046
:100AB0002649886129464CF25030FFF7E1FD064691
:100AC000AEBB012D06D12248C06840F0020020498B
:100AD000C86006E01F48006840F002001C49C1F8E9
:100AE0000C01BFF36F8FBFF34F8F00BFD9F8000029
:100AF000C8F8000008F1040809F10409AAF101008E
:100B000000F0FF0ABAF1000FF0D1BFF36F8FBFF30F
:100B10004F8F29464CF25030FFF7B2FD0646012DAB
:100B200006D10B48C06820F002000949C86006E001
:100B30000848006820F002000549C1F80C0100BF18
:100B400000200249087500BF304698E7EC160020E7
:100B5000002000520C2100521348C06800F0010030
:100B600058B1124810494860114848600846C068AA
:100B700000F0010008B1012070470E48006800F045
:100B8000010070B109480B49083908600848064956
:100B9000C1F804010748006800F0010008B1012015
:100BA000EAE70020E8E70000002000522301674543
:100BB000AB89EFCD0C210052F8B502460023734DEE
:100BC000DEE001279F400E6806EA0704002C71D082
:100BD0004E68012E08D04E68022E05D04E68112EA8
:100BE00002D04E68122E13D190685F000326BE40DB
:100BF000B0435F00CE68BE4030439060506801262D
:100C00009E40B0430E79C6F300169E4030435060BC
:100C1000D0685F000326BE40B0435F008E68BE40D0
:100C20003043D0604E68022E02D04E68122E13D18F
:100C3000DF0802F1200656F827005E07F70E0F26A0
:100C4000BE40B0435F07FF0E0E69BE403043DF0871
:100C500002F1200646F8270010685F000326BE4018
:100C6000B0430E7906F003065F00BE4030431060CB
:100C70004E6806F08056B6F1805F1BD100BF444E2F
:100C8000366846F00206424F3E603E46366806F041
:100C90000206009600BF00BF3E4E9F0856F8270090
:100CA0009E07370F0F26BE40B0433B4EB24202D1E3
:100CB00000262EE063E0394EB24201D1012628E041
:100CC000374EB24201D1022623E0364EB24201D164
:100CD00003261EE0344EB24201D1042619E0334E01
:100CE000B24201D1052614E0314EB24201D10626AE
:100CF0000FE0304EB24201D107260AE02E4EB2423A
:100D000001D1082605E02D4EB24201D1092600E0AE
:100D10000A269F073F0FBE4030431E4E9F0846F8ED
:100D200027002868A0434E6806F48036B6F5803F59
:100D300000D1204328606868A0434E6806F400365E
:100D4000B6F5003F00D1204368604FF0B0463068F0
:100D5000A0434E6806F48016B6F5801F00D12043EC
:100D60004FF0B04630607068A0434E6806F400163D
:100D7000B6F5001F00D120434FF0B04670605B1CF9
:100D80000E68DE40002E7FF41CAFF8BD80000058D6
:100D9000F4440258080400580000025800040258A5
:100DA00000080258000C02580010025800140258A3
:100DB00000180258001C0258002002580024025853
:100DC00001480068000C70470010005C0148006892
:100DD0007047000028000020034800680349097894
:100DE00008440149086070472800002030000020B6
:100DF00010B5032000F0FCF801F0E2FB104909688F
:100E0000C1F303210F4A515C01F01F0120FA01F4E4
:100E10000B48006800F00F001146085C00F01F004E
:100E200024FA00F008490860084804600F2000F028
:100E30000FF808B1012010BD00F088F80020FAE793
:100E400018440258185D00083800002034000020C3
:100E500070B504461148007808B9012070BD0F48EC
:100E600000784FF47A71B1FBF0F00D490968B1FBDD
:100E7000F0F5284602F02BFA08B10120EEE7102C1D
:100E800007D200222146501E00F075F80548046084
:100E900001E00120E2E70020E0E700003000002050
:100EA000340000202C0000204178154A11600178A0
:100EB000F9B1121D41681160017B0907C27A41EA4C
:100EC0000261827A41EAC241427B41EA8241827BED
:100ED00041EA4241C27B41EA0241427A41EA0221AF
:100EE000027A41EA420102781143054A0832116050
:100EF00005E00021024A121D1160121D11607047A9
:100F000098ED00E0BFF35F8F0548006820F4803063
:100F100003490860002002497031086070470000F2
:100F200024ED00E040F00101074A116006497039E4
:100F3000096841F48031044A703A1160BFF34F8F61
:100F4000BFF36F8F7047000094ED00E070470146DB
:100F5000084600280DDB00BF00BF00F01F03012280
:100F60009A4043099B0003F1E023C3F8002100BF2E
:100F700000BF00BF70472DE9F05F80460D46164662
:100F800004F060FA074639462A46334601F0070066
:100F9000C0F1070ABAF1040F02D94FF0040A01E0C8
:100FA000C0F1070AD14600F1040ABAF1070F02D2D4
:100FB0004FF0000A01E0A0F1030AD4464FF0010A05
:100FC0000AFA09FAAAF1010A0AEA020A0AFA0CFA6A
:100FD0004FF0010B0BFA0CFBABF1010B0BEA030B0F
:100FE0004AEA0B042146404604F034FABDE8F09F7B
:100FF00000BF00F00702064B19684FF6FF031940C7
:10100000044B0B4343EA0221014B196000BF7047B8
:101010000CED00E00000FA0510B501F087FA054973
:101020000968C1F30211044A515C01F01F01C84074
:1010300010BD000020440258185D000870B501463C
:10104000844D2D6805F00303824D2D68C5F30530EE
:10105000804D2D1D2D68C5F300147E4D14352D686F
:10106000C5F3CC0515FB04F501EE105AB8EE411A94
:10107000F0EE410A00286FD023B1012B4ED0022B95
:101080006BD16BE0734D283D2D68C5F340153DB322
:10109000704D283D2D68C5F3C1066F4D25FA06F247
:1010A00001EE102AF8EE411A01EE100AB8EE411ACC
:1010B00081EE812A9FED691AC0EE811A654D1035C7
:1010C0002D68C5F3080501EE105AB8EE411A31EE4D
:1010D000811AF7EE001A31EE211A22EE010A1CE005
:1010E00001EE100AB8EE411ADFED5D1A81EE812A99
:1010F0009FED5A1AC0EE811A564D10352D68C5F372
:10110000080501EE105AB8EE411A31EE811AF7EED9
:10111000001A31EE211A22EE010A5BE001EE100AFC
:10112000B8EE411ADFED4F1A81EE812A9FED4B1A7E
:10113000C0EE811A474D10352D68C5F3080501EE44
:10114000105AB8EE411A31EE811AF7EE001A31EE5C
:10115000211A22EE010A3DE077E01DE001EE100ABF
:10116000B8EE411A9FED402AC2EE011A9FED3B1ADC
:1011700080EE812A374D10352D68C5F3080501EE44
:10118000105AB8EE411A32EE011AB7EE002A31EECB
:10119000021A21EE810A1DE001EE100AB8EE411A92
:1011A000DFED301A81EE812A9FED2C1AC0EE811AF4
:1011B000284D10352D68C5F3080501EE105AB8EE1C
:1011C000411A31EE811AF7EE001A31EE211A22EEA1
:1011D000010A00BF00BF1F4D10352D68C5F346251D
:1011E00001EE105AB8EE411AF7EE001A31EE211A4C
:1011F000C0EE011ABCEEE11A81ED001A154D103552
:101200002D68C5F3064501EE105AB8EE411AF7EE07
:10121000001A31EE211AC0EE011ABCEEE11A81ED7E
:10122000011A0C4D10352D68C5F3066501EE105AF4
:10123000B8EE411AF7EE001A31EE211AC0EE011A8B
:10124000BCEEE11A81ED021A03E000250D604D604D
:101250008D6070BD284402580090D0030000004605
:101260000024744C0024744A20BCBE4B70B5014667
:10127000844D2D6805F00303824D2D68C5F305509C
:10128000804D2D1D2D68C5F300247E4D1C352D6825
:10129000C5F3CC0515FB04F501EE105AB8EE411A62
:1012A000F0EE410A00286FD023B1012B4ED0022B63
:1012B0006BD16BE0734D283D2D68C5F340153DB3F0
:1012C000704D283D2D68C5F3C1066F4D25FA06F215
:1012D00001EE102AF8EE411A01EE100AB8EE411A9A
:1012E00081EE812A9FED691AC0EE811A654D18358D
:1012F0002D68C5F3080501EE105AB8EE411A31EE1B
:10130000811AF7EE001A31EE211A22EE010A1CE0D2
:1013100001EE100AB8EE411ADFED5D1A81EE812A66
:101320009FED5A1AC0EE811A564D18352D68C5F337
:10133000080501EE105AB8EE411A31EE811AF7EEA7
:10134000001A31EE211A22EE010A5BE001EE100ACA
:10135000B8EE411ADFED4F1A81EE812A9FED4B1A4C
:10136000C0EE811A474D18352D68C5F3080501EE0A
:10137000105AB8EE411A31EE811AF7EE001A31EE2A
:10138000211A22EE010A3DE077E01DE001EE100A8D
:10139000B8EE411A9FED402AC2EE011A9FED3B1AAA
:1013A00080EE812A374D18352D68C5F3080501EE0A
:1013B000105AB8EE411A32EE011AB7EE002A31EE99
:1013C000021A21EE810A1DE001EE100AB8EE411A60
:1013D000DFED301A81EE812A9FED2C1AC0EE811AC2
:1013E000284D18352D68C5F3080501EE105AB8EEE2
:1013F000411A31EE811AF7EE001A31EE211A22EE6F
:10140000010A00BF00BF1F4D18352D68C5F34625E2
:1014100001EE105AB8EE411AF7EE001A31EE211A19
:10142000C0EE011ABCEEE11A81ED001A154D183517
:101430002D68C5F3064501EE105AB8EE411AF7EED5
:10144000001A31EE211AC0EE011ABCEEE11A81ED4C
:10145000011A0C4D18352D68C5F3066501EE105ABA
:10146000B8EE411AF7EE001A31EE211AC0EE011A59
:10147000BCEEE11A81ED021A03E000250D604D601B
:101480008D6070BD284402580090D00300000046D3
:101490000024744C0024744A20BCBE4B2DE9F0415A
:1014A00004460025A846206800F00060B0F1006FF7
:1014B00030D1606E48B1B0F5801F0DD0B0F5001F7F
:1014C00010D0B0F5401F15D113E0F948006840F482
:1014D0000030F74908600FE00221201D02F0D0FA29
:1014E000054609E0022104F1240002F07BFB0546D9
:1014F00002E001E0012500BF00BF55B9EC482430EF
:10150000006820F44010616E0843E9492431086006
:1015100000E0A846208800F48070B0F5807F2DD1CF
:10152000606D05281AD2DFE800F0030A10171800D2
:10153000DF48006840F40030DD49086010E0002119
:10154000201D02F09DFA05460AE0002104F1240066
:1015500002F048FB054603E002E001E0012500BF80
:1015600000BF55B9D2482430006820F00700616DF3
:101570000843CF492431086000E0A846208800F4E1
:101580000070B0F5007F33D1A06D802817D003DC48
:1015900040B140281CD10CE0C02817D0B0F5807FA6
:1015A00016D114E0C248006840F40030C049086019
:1015B00010E00021201D02F063FA05460AE0002138
:1015C00004F1240002F00EFB054603E002E001E016
:1015D000012500BF00BF55B9B5482430006820F48C
:1015E000E070A16D0843B2492431086000E0A846CC
:1015F000208800F48060B0F5806F38D1D4F8A40062
:10160000B0F5800F19D004DC50B1B0F5001F1DD12A
:101610000DE0B0F5C00F17D0B0F5000F16D114E0F3
:10162000A348006840F40030A149086010E00021A0
:10163000201D02F025FA05460AE0002104F12400ED
:1016400002F0D0FA054603E002E001E0012500BF08
:1016500000BF5DB996482C30006820F46000D4F8D3
:10166000A410084392492C31086000E0A846208865
:1016700000F40060B0F5006F38D1D4F8A800B0F1E4
:10168000007F19D004DC50B1B0F1807F1DD10DE096
:10169000B0F1407F17D0B0F1806F16D114E08448CC
:1016A000006840F400308249086010E00021201DED
:1016B00002F0E6F905460AE0002104F1240002F0F8
:1016C00091FA054603E002E001E0012500BF00BFFA
:1016D0005DB977482C30006820F0E060D4F8A8109D
:1016E000084373492C31086000E0A846206800F0E8
:1016F0000070B0F1007F27D1A06CA0B1102804D0F9
:10170000202809D030280FD10CE06948006840F447
:1017100000306749086009E00221201D02F0B0F99D
:10172000054603E002E001E0012500BF00BF55B916
:101730005F482030006820F03000A16C08435C490D
:101740002031086000E0A846208800F48050B0F501
:10175000805F36D1E06DB0F5005F19D004DC50B188
:10176000B0F5805F1DD10DE0B0F5405F17D0B0F54A
:10177000804F16D114E04E48006840F400304C49C8
:10178000086010E00021201D02F07AF905460AE009
:10179000002104F1240002F025FA054603E002E0EE
:1017A00001E0012500BF00BF55B941482430006861
:1017B00020F4E040E16D08433D492431086000E039
:1017C000A846208800F40050B0F5005F34D1206EA8
:1017D000B0F5403F1DD007DC68B1B0F5803F0BD0BD
:1017E000B0F5003F18D10DE0B0F5802F12D0B0F564
:1017F000A02F11D10FE011E00121201D02F040F9CE
:1018000005460BE0012104F1240002F0EBF9054646
:1018100004E003E002E001E0012500BF00BF55B98C
:1018200023482430006820F4E020216E084320493A
:101830002431086000E0A846208800F48040B0F51C
:10184000804F38D1D4F8AC00B0F1405F1DD007DC38
:1018500068B1B0F1805F0BD0B0F1005F18D10DE03E
:10186000B0F1804F12D0B0F1A04F11D10FE011E0D4
:101870000121201D02F004F905460BE0012104F1CD
:10188000240002F0AFF9054604E003E002E001E0C5
:10189000012500BF00BF6DB905482C30006820F05D
:1018A000E040D4F8AC10084301492C31086002E054
:1018B0002C440258A846208800F40040B0F5004FA0
:1018C00026D1E06E98B1B0F1805F03D0B0F1005F37
:1018D0000ED106E0F948006840F40030F74908608E
:1018E00008E00121201D02F0CBF8054602E001E0EE
:1018F000012500BF00BF55B9F0482430006820F032
:101900004050E16E0843ED492431086000E0A846EC
:10191000206800F08070B0F1807F27D1606CA0B1AA
:10192000012804D0022809D003280FD10CE0E34895
:10193000006840F40030E149086009E00221201D00
:1019400002F09EF8054603E002E001E0012500BF39
:1019500000BF55B9D9482030006820F00300616C01
:101960000843D6492031086000E0A846206800F40A
:101970008000B0F5800F7DD1D148006840F48070C0
:10198000CF490860FFF722FA064606E0FFF71EFA85
:10199000801B642801D9032505E0C948006800F4CC
:1019A00080700028F2D000BF85BBC4484430006876
:1019B00000F44070B4F8B01001F44071884213D0C4
:1019C000BE484430006820F44077BC48443000688A
:1019D00040F48030B949443108600846006820F47A
:1019E0008030086008460760D4F8B000B0F5807F0A
:1019F00015D1FFF7EBF9064609E0FFF7E7F9801B81
:101A000041F28831884202D9032507E038E0AB482B
:101A100044300068C0F340000028EED000BF55BB42
:101A200000BFB4F8B00000F44070B0F5407F0ED1B4
:101A3000A2481C38006820F47C51A24AD4F8B000B7
:101A4000104041EA10109D491C39086007E09B488E
:101A50001C38006820F47C5098491C39086097486D
:101A600044300068B4F8B010C1F30B010843934947
:101A7000443101E005E001E0086002E0A84600E032
:101A8000A846207800F0010068B3A06F182819D08C
:101A900005DC48B1082808D0102816D10BE0202812
:101AA00011D0282811D10FE011E00121201D01F0F3
:101AB000E7FF05460BE0012104F1240002F092F853
:101AC000054604E003E002E001E0012500BF00BF9D
:101AD00055B97A482830006820F03800A16F0843D3
:101AE00076492831086000E0A846207800F002001E
:101AF000022828D1606F062815D2DFE800F0030421
:101B00000A11121311E00121201D01F0B9FF054651
:101B10000BE0012104F1240002F064F8054604E022
:101B200003E002E001E0012500BF00BF55B96348B2
:101B30002830006820F00700616F08435F492831B2
:101B4000086000E0A846207800F0040004282AD1AC
:101B5000D4F89000062815D2DFE800F003040A113B
:101B6000121311E00121201D01F08AFF05460BE050
:101B7000012104F1240002F035F8054604E003E0F9
:101B800002E001E0012500BF00BF5DB94B482C30E9
:101B9000006820F00700D4F89010084347492C3122
:101BA000086000E0A846207800F02000202836D108
:101BB000D4F88C00B0F1405F1DD007DC68B1B0F103
:101BC000805F0BD0B0F1005F18D10DE0B0F1804F15
:101BD00012D0B0F1A04F11D10FE011E00021201D73
:101BE00001F04EFF05460BE0022104F1240001F054
:101BF000F9FF054604E003E002E001E0012500BF33
:101C000000BF5DB92D482830006820F0E040D4F8CE
:101C10008C10084329492831086000E0A846207844
:101C200000F04000402836D1D4F89800B0F5406F5D
:101C30001DD007DC68B1B0F5806F0BD0B0F5006F38
:101C400018D10DE0B0F5805F12D0B0F5A05F11D1D2
:101C50000FE011E00021201D01F012FF05460BE00E
:101C6000022104F1240001F0BDFF054604E003E079
:101C700002E001E0012500BF00BF5DB90F482C3034
:101C8000006820F4E050D4F8981008430B492C3138
:101C9000086000E0A846207800F0800080283AD153
:101CA000D4F89C00B0F5C04F23D00DDC98B1B0F54E
:101CB000005F11D0B0F5804F1ED113E02C440258C4
:101CC00000480258FFFCFF0FB0F5004F12D0B0F5EE
:101CD000204F11D10FE011E00021201D01F0D0FEB6
:101CE00005460BE0022104F1240001F07BFF0546CC
:101CF00004E003E002E001E0012500BF00BF4DB9B0
:101D0000B548006820F46040D4F89C100843B249FC
:101D1000086000E0A846207800F00800082817D1E5
:101D2000D4F88000B0F5805F07D1022104F12400CF
:101D300001F058FF08B14FF00108A748001F0068E4
:101D400020F44050D4F880100843A349091F0860CC
:101D5000207800F01000102815D1D4F89400B0F5C8
:101D6000807F07D1022104F1240001F03BFF08B17C
:101D70004FF001089848006820F44070D4F894109F
:101D8000084395490860206800F40020B0F5002F52
:101D900026D1D4F8A00030B1B0F5803F09D0B0F51D
:101DA000003F0ED10CE00021201D01F069FE054628
:101DB00009E0022104F1240001F014FF054602E0CD
:101DC00001E0012500BF00BF4DB98348006820F441
:101DD0004030D4F8A01008437F49086000E0A846CE
:101DE000206800F48020B0F5802F2DD1D4F8840035
:101DF000B0F5801F06D0B0F5001F0CD0B0F5401F25
:101E000011D10FE074482C38006840F4003072495A
:101E10002C39086009E0012104F1240001F0E2FE00
:101E2000054602E001E0012500BF00BF5DB96A4838
:101E3000001F006820F44010D4F88410084366495D
:101E4000091F086000E0A846206800F48030B0F563
:101E5000803F24D1E06C18B1B0F5803F0FD108E08D
:101E60005D482C38006840F400305B492C3908602C
:101E700007E00221201D01F003FE054601E00125D7
:101E800000BF00BF55B954480C38006820F48030BA
:101E9000E16C084350490C39086000E0A84620680E
:101EA00000F00050B0F1005F07D1022104F12400DE
:101EB00001F098FE08B14FF00108206800F40030EE
:101EC000B0F5003F27D1E06FA0B1B0F5807F06D01C
:101ED000B0F5007F0CD0B0F5407F0CD109E03E4852
:101EE0002C38006840F400303B492C39086004E08D
:101EF00003E002E001E0012500BF00BF55B936480C
:101F0000001F006820F44070E16F08433249091F48
:101F1000086000E0A846206800F48010B0F5801F3B
:101F200009D12D480838006820F00040216F08438F
:101F3000294908390860206800F08050B0F1805FBE
:101F40000AD125484838006820F48040D4F8B410FD
:101F50000843214948390860206800F40010B0F5B2
:101F6000001F09D11C480838006820F08070A16E5D
:101F70000843194908390860206800F08040B0F132
:101F8000804F11D100BF14484838006820F4004049
:101F900011494839086008460068D4F8B810084369
:101FA0000D494839086000BF206800F00040B0F1DA
:101FB000004F09D108480C38006820F04050216DCE
:101FC000084305490C390860B8F1000F02D1002020
:101FD000BDE8F0810120FBE7584402582DE9F041AB
:101FE00004460D4614B90120BDE8F081BD480068E3
:101FF00000F00F00A8420ED2BA48006820F00F008F
:102000002843B84908600846006800F00F00A8425D
:1020100001D00120E8E7207800F0040004280ED168
:10202000B1492069096801F07001884207D9AE48BA
:10203000006820F0700021690843AB4908602078EF
:1020400000F00800082811D1A749091D6069096836
:1020500001F07001884209D9A348001D006820F0F2
:10206000700061690843A049091D0860207800F0EC
:102070001000102811D19C49091DA069096801F4BC
:10208000E061884209D99848001D006820F4E060AA
:10209000A16908439449091D0860207800F02000D8
:1020A000202811D190490831E069096801F07001D8
:1020B000884209D98C480830006820F07000E16936
:1020C0000843894908310860207800F0020002289E
:1020D0000ED18549E068096801F00F01884207D9EF
:1020E0008148006820F00F00E16808437E490860DD
:1020F000207800F00100002850D07B48006820F4D0
:102100007060A1680843784908606068022807D1B8
:10211000754818380068C0F34040F8B9012063E7FB
:102120006068032807D1704818380068C0F3406021
:10213000A0B9012058E76068012807D16A4818381B
:102140000068C0F3002048B901204DE76648183800
:102150000068C0F3800008B9012045E762480838EC
:10216000006820F00700616808435F49083908608B
:10217000FEF72CFE064608E0FEF728FE801B41F223
:102180008831884201D903202EE757480838006873
:1021900000F038006168B0EBC10FEDD1207800F09D
:1021A000020002280ED15049E068096801F00F01D1
:1021B000884207D24C48006820F00F00E1680843CD
:1021C000494908604748006800F00F00A8420ED94E
:1021D0004448006820F00F00284342490860084640
:1021E000006800F00F00A84201D00120FCE6207832
:1021F00000F0040004280ED13B492069096801F071
:102200007001884207D23848006820F070002169C8
:10221000084335490860207800F00800082811D1EB
:102220003149091D6069096801F07001884209D2CD
:102230002D48001D006820F07000616908432A499C
:10224000091D0860207800F01000102811D12649DF
:10225000091DA069096801F4E061884209D2224899
:10226000001D006820F4E060A16908431E49091DB3
:102270000860207800F02000202811D11A49083188
:10228000E069096801F07001884209D216480830F7
:10229000006820F07000E1690843134908310860C4
:1022A00000F08EF910490968C1F303210F4A515C0F
:1022B00001F01F0120FA01F70B48006800F00F0041
:1022C0001146085C00F01F0027FA00F0084908607A
:1022D0000848076008480068FEF7BAFD8046404697
:1022E00082E600000020005218440258185D0008E1
:1022F00038000020340000202C00002010B5814858
:10230000006800F00F0007280ED27E48006820F019
:102310000F00C01D7B4908600846006800F00F00F0
:10232000072801D0012010BDFEF750FD0446764875
:10233000006840F001007449086006E0FEF746FDC1
:10234000001B022801D90320EDE76F48006800F068
:1023500004000028F2D06C48001D006840F0804066
:102360006949091D08600020674910310860674805
:10237000674908606749086067480068FEF768FDBC
:1023800008B10120CFE7FEF721FD044608E0FEF783
:102390001DFD001B41F28831884201D90320C2E7AC
:1023A00059481030006800F038000028EFD1FEF7DF
:1023B0000DFD0446544800685849084052490860D9
:1023C00008E0FEF703FD001B41F28831884201D985
:1023D0000320A8E74C48006800F400300028F0D142
:1023E000FEF7F4FC04464848006820F08070464937
:1023F000086006E0FEF7EAFC001B022801D9032072
:1024000091E74148006800F000700028F2D1FEF723
:10241000DDFC04463C48006820F080603A490860D2
:1024200006E0FEF7D3FC001B022801D903207AE75F
:102430003548006800F000600028F2D1FEF7C6FCC5
:1024400004463148006820F080502F49086006E0BB
:10245000FEF7BCFC001B022801D9032063E72A48D1
:10246000006800F000500028F2D1274918310860B8
:10247000091D0860091D08602948234928310860A2
:102480002848091D08602848091D08600020091D0A
:1024900008602548091D08600020091D08602248C1
:1024A000091D08600020091D08601748006820F415
:1024B0008020154908600020134960310860401EE3
:1024C0001149683108601048D030006840F480300D
:1024D0000D49D03108600B48006800F00F00072854
:1024E0000ED90848006820F00F00C01D054908609B
:1024F0000846006800F00F00072801D0012012E70D
:10250000002010E700200052004402580090D00341
:1025100034000020380000202C00002045EDF6FF9C
:10252000000202020000FF018002010110B500F06C
:1025300047F80D490968C1F303210C4A515C01F0C9
:102540001F0120FA01F40848006800F00F0011464E
:10255000085C00F01F0024FA00F0054908600548F7
:1025600004600846006810BD18440258185D000851
:10257000380000203400002000B5FFF7D7FF0549E0
:102580000968C1F30211044A515C01F01F01C840FF
:1025900000BD00001C440258185D000800B5FFF79C
:1025A000C5FF05490968C1F30221044A515C01F0E5
:1025B0001F01C84000BD00001C440258185D0008FF
:1025C000F0B5824E366806F0380636B1082E15D0C2
:1025D000102E15D0182E7DD114E07C4E103E36689A
:1025E000C6F3401646B1794E103E3668C6F3C107B1
:1025F000774E26FA07F000E07548E5E07548E3E01D
:102600007548E1E0714E1836366806F003046F4EE7
:1026100018363668C6F305116C4E1C36366806F05F
:1026200001056A4E24363668C6F3CC0616FB05F65D
:1026300001EE106AB8EE410A002971D024B1012CD4
:1026400050D0022C6DD16DE0604E103E3668C6F35E
:1026500040163EB35D4E103E3668C6F3C1075C4E71
:1026600026FA07F301EE103AF8EE411A01EE101ABD
:10267000B8EE411A81EE812A9FED581AC0EE011A78
:10268000524E20363668C6F3080601EE106AB8EEE0
:10269000411A31EE811AF7EE001A31EE211A62EE7C
:1026A000010A1EE001EE101AB8EE411ADFED4C1AD5
:1026B00081EE812A9FED491AC0EE011A434E203661
:1026C0003668C6F3080601EE106AB8EE411A31EE1C
:1026D000811A00E076E0F7EE001A31EE211A62EE80
:1026E000010A5BE001EE101AB8EE411A9FED3D2A97
:1026F000C2EE011A9FED391A80EE012A334E2036C0
:102700003668C6F3080601EE106AB8EE411A32EEDA
:10271000011AB7EE002A31EE021A61EE810A3DE09D
:102720004EE01DE001EE101AB8EE411ADFED2E1A50
:1027300081EE812A9FED291AC0EE011A234E203620
:102740003668C6F3080601EE106AB8EE411A31EE9B
:10275000811AF7EE001A31EE211A62EE010A1DE02D
:1027600001EE101AB8EE411A9FED1E2AC2EE011AB0
:102770009FED1A1A80EE012A144E20363668C6F3F1
:10278000080601EE106AB8EE411A32EE011AB7EEF1
:10279000002A31EE021A61EE810A00BF00BF0B4E23
:1027A00020363668C6F34626721C01EE102AB8EEB3
:1027B000411AC0EE811ABCEEE11A11EE100A00E0D7
:1027C000002001E0034800BF00BFF0BD10440258E4
:1027D0000090D00300093D0040787D0100000046D4
:1027E0000024744C0024744A20BCBE4B2DE9F047F1
:1027F000044614B90120BDE8F087207800F00100FC
:10280000002872D0F748006800F03808F548183002
:10281000D0F80090B8F1100F06D0B8F1180F0FD112
:1028200009F0030002280BD1EE4810380068C0F30D
:10283000404000286ED0606800286BD10120DAE7A4
:1028400000BF6068B0F5803F08D1E64810380068E6
:1028500040F48030E349103908602EE0606868B9C0
:10286000E0481038006820F48030DE4910390860F4
:102870000846006820F4802008601EE06068B0F51B
:10288000A02F0DD1D7481038006840F48020D549DA
:10289000103908600846006840F4803008600CE099
:1028A000D0481038006820F48030CE4910390860D4
:1028B0000846006820F48020086000BF6068A8B166
:1028C000FEF784FA054608E0FEF780FA401B41F265
:1028D0008831884201D903208DE7C248103800684A
:1028E000C0F340400028EFD014E014E0FEF76EFA89
:1028F000054608E0FEF76AFA401B41F2883188423B
:1029000001D9032077E7B74810380068C0F340408A
:102910000028EFD100BF207800F0020002287BD110
:10292000B048006800F03808AE481830D0F8009081
:10293000B8F1000F05D0B8F1180F3AD109F0030033
:10294000B0BBA84810380068C0F3800018B1E06838
:1029500008B901204FE700BFFEF732FA41F2030148
:10296000884219D8206940280AD19E480C3800684E
:1029700020F47C3040F400309A490C39086016E0AD
:1029800098480C38006820F47C30216940EA013016
:1029900094490C3908600AE092480C38006820F02D
:1029A000FE40217C40EA01608E490C39086067E0F6
:1029B000FFE7E06888B38B481038006820F0190002
:1029C000E1680843874910390860FEF7FFF90546BA
:1029D00006E0FEF7FBF9401B022801D903200AE7B5
:1029E000804810380068C0F380000028F1D000BF94
:1029F000FEF7E6F941F2030188421BD8206940281E
:102A00000CD178480C38006820F47C3040F4003059
:102A100074490C39086018E033E017E071480C384D
:102A2000006820F47C30216940EA01306D490C399E
:102A300008600AE06B480C38006820F0FE40217CFA
:102A400040EA016067490C39086019E065481038B0
:102A5000006820F00100634910390860FEF7B6F9FC
:102A6000054606E0FEF7B2F9401B022801D9032013
:102A7000C1E65C4810380068C0F380000028F1D13E
:102A800000BF207800F0100010287CD15548006865
:102A900000F0380853481830D0F80090B8F1080F0B
:102AA00006D0B8F1180F3DD109F00300012839D143
:102AB0004C4810380068C0F3002020B1E06980283D
:102AC00001D0012097E600BFFEF77AF941F2030139
:102AD00088421AD8206A20280AD142480C38006857
:102AE00020F0F84040F080403E490C39086018E082
:102AF0003C480C38006820F0F84094F8201040EA78
:102B0000816038490C3908600BE03648001F0068C6
:102B100020F07C5094F8201040EA01603149091FF0
:102B2000086067E0E06978B32E481038006840F02C
:102B300080002C4910390860FEF748F9054606E088
:102B4000FEF744F9401B022801D9032053E625482B
:102B500010380068C0F300200028F1D000BFFEF755
:102B60002FF941F2030188421CD8206A20280CD199
:102B70001C480C38006820F0F84040F080401949AB
:102B80000C3908601AE036E019E016480C38006885
:102B900020F0F84094F8201040EA816011490C3987
:102BA00008600BE00F48001F006820F07C5094F88C
:102BB000201040EA01600B49091F08601AE009482B
:102BC0001038006820F08000064910390860FEF7D0
:102BD000FDF8054608E0FEF7F9F8401B022803D986
:102BE000032008E610440258F3480068C0F30020B0
:102BF0000028F0D100BF207800F00800082836D166
:102C00006069D0B1EC487430006840F00100EA49D6
:102C100074310860FEF7DAF8054606E0FEF7D6F8EC
:102C2000401B022801D90320E5E5E3487430006821
:102C3000C0F340000028F1D019E0DF48743000688C
:102C400020F00100DC4974310860FEF7BFF805464A
:102C500006E0FEF7BBF8401B022801D90320CAE5B5
:102C6000D54874300068C0F340000028F1D12078C6
:102C700000F02000202830D1A069B8B1CE4800680B
:102C800040F48050CC490860FEF7A0F8054606E005
:102C9000FEF79CF8401B022801D90320ABE5C6488B
:102CA0000068C0F340300028F2D016E0C248006847
:102CB00020F48050C0490860FEF788F8054606E019
:102CC000FEF784F8401B022801D9032093E5BA4897
:102CD0000068C0F340300028F2D1207800F00400F2
:102CE00004287DD1B548006840F48070B34908607D
:102CF000FEF76CF8054606E0FEF768F8401B64280E
:102D000001D9032077E5AD48006800F48070002801
:102D1000F2D000BFA068012808D1A7487030006831
:102D200040F00100A449703108602DE0A06868B946
:102D3000A1487030006820F001009F4970310860A0
:102D40000846006820F0040008601DE0A06805281F
:102D50000DD199487030006840F0040096497031F8
:102D600008600846006840F0010008600CE09248E6
:102D70007030006820F001008F497031086008460B
:102D8000006820F00400086000BFA068A0B1FEF752
:102D90001DF8054608E0FEF719F8401B41F288319E
:102DA000884201D9032026E5834870300068C0F3CB
:102DB00040000028EFD013E0FEF708F8054608E0D1
:102DC000FEF704F8401B41F28831884201D9032004
:102DD00011E5794870300068C0F340000028EFD159
:102DE000606A00287DD074481030006800F0380018
:102DF000182877D0606A022875D16F48006820F0E3
:102E000080706D490860FDF7E1FF054606E0FDF7BB
:102E1000DDFF401B022801D90320ECE4664800686E
:102E2000C0F340600028F2D100BFD4E90A1041EAA3
:102E3000001061492831096840F2F3329143084398
:102E40005D4928310860208E401EC0F30800616B88
:102E5000491E4FF47E4202EA41210843218F491E58
:102E6000D20102EA014108433C21095D491E1202D8
:102E700002EA0161084350493031086000BF081F71
:102E8000006820F00100091F08604B4834300068DA
:102E90004FF6F8718843A16C40EAC10046493431CD
:102EA000086045482C30006820F00C00216C084375
:102EB00041492C3108600846006820F00200616C2E
:102EC00008433D492C3108600846006840F48030D2
:102ED00008600846006840F4003008600846006852
:102EE00002E066E038E01FE040F480200860084619
:102EF000006840F0010008602F48006840F08070D2
:102F00002D490860FDF762FF054606E0FDF75EFF0C
:102F1000401B022801D903206DE427480068C0F354
:102F200040600028F2D044E02348006820F0807020
:102F300021490860FDF74AFF054606E0FDF746FF18
:102F4000401B022801D9032055E41B480068C0F348
:102F500040600028F2D12CE0174828300768164856
:102F600030300668606A012821D007F00301A06AAA
:102F700081421CD1C7F30511E06A884217D1C6F31C
:102F80000801206B401E814211D1606B401EC6F3C8
:102F9000462188420BD1A06B401EC6F306418842F1
:102FA00005D1E06B401EC6F30661884201D00120C6
:102FB00021E400201FE400000044025800480258A9
:102FC000704770477047704710B50446FDF70FFA19
:102FD00010BD000070B50446E56A2068406BC0F380
:102FE000C03030B105F0080018B1204601F09AF861
:102FF00026E12068406BC0F30020002876D04FF413
:103000008070216888632068C06B4CF23A11884355
:103010002168C8632068C06B20F080502168C863B5
:103020002068C06820F040002168C86005F00800F2
:1030300030B305F0020010B905F0200050B120684F
:1030400000F040FF06462EB1606B304360632046BF
:10305000FFF7BAFF7B4821688863012084F83000BD
:103060000020E06205F0010010B905F0020018B17F
:10307000204600F0E9F8E3E0204600F0EAF8DFE05F
:1030800005F080000028B3D0002021688862216804
:10309000C8622168086505F0020010B905F020003B
:1030A00050B1206800F00EFF06462EB1606B304331
:1030B00060632046FFF788FF012084F8300000207D
:1030C000E06205F0100010B905F0200010B12046B4
:1030D00000F0BFF805F0010018B905F00200002863
:1030E00086D0204600F0B0F8AAE0FFE72068406BE9
:1030F000C0F3803030B105F0080018B1204601F06F
:1031000032F89DE02068406B00F03A0008B10120E1
:1031100000E00020002870D02068406BC0F3400021
:1031200018B1606B40F0020060632068406BC0F330
:10313000C00018B1606B40F0080060632068406B0D
:10314000C0F3401018B1606B40F02000606320684D
:10315000406BC0F3001018B1606B40F0100060636A
:103160003848216888632068C06B20F49D7021680E
:10317000C8632068C06820F040002168C8602068EB
:10318000C06A40F400502168C8622068C06840F0FE
:1031900080002168C860206800F094FE616B0843DD
:1031A00060632068C06820F080002168C8604FF428
:1031B00000602168886305F0080040B1012084F8B0
:1031C00030000020E0622046FFF7FEFE38E005F008
:1031D000800030B3606B20B32068C06B20F080505B
:1031E0002168C863002021680865012084F8300048
:1031F0002046FFF7E9FE23E0FFE72068406BC0F3BD
:10320000007070B14FF08050216888632068006DB5
:1032100000F0040050B905F0200018B12046FFF777
:10322000D2FE0DE02046FFF7CCFE09E005F02000BD
:1032300018B12046FFF7C6FE02E02046FFF7C0FEA9
:1032400070BD00003A0F001810B50446FDF7D0F825
:1032500010BD10B50446FDF7CCF810BD70B504469E
:103260000E4615460CB9012070BD94F8450028B9EA
:10327000002084F84400204600F028F804F10801FA
:103280002068FDF79DFA3146A2682068FDF7EAFA4A
:103290002946E36AD4E90102FDF770FAA1682068C3
:1032A00050F8210040F00100A268216841F8220096
:1032B0000548006840F0004003490860012084F898
:1032C00045000020D0E7000000400052704770B574
:1032D00004462546681EB0F1807F01D301200FE02F
:1032E000681E4FF0E02148610F214FF0FF3002F0DF
:1032F000B1F800204FF0E02188610720086100202C
:1033000070BD10B504460CB9012010BD94F83D0005
:1033100028B9002084F83C00204600F029F802205B
:1033200084F83D00211D206801F0E4F9012084F8B3
:10333000480000BF84F83E0001213F200155402095
:10334000015541200155422001554320015500BF40
:1033500000BF012084F84400452001554620015556
:103360004720015500BF012084F83D000020CCE734
:1033700070470000014691F83D00012801D001206E
:103380007047022081F83D0008688068074B00EA1A
:103390000302062A08D0B2F5803F05D0086800680D
:1033A00040F001000B6818600020E9E70700010009
:1033B00010B504460CB9012010BDA06900B100E0B1
:1033C00000BFD4F8800028B9002084F87C00204693
:1033D00000F02AF82420C4F880002068006820F05B
:1033E000010021680860204601F0A0FA012800D100
:1033F000E2E7A06A10B1204601F0E2F920684068D7
:1034000020F49040216848602068806820F02A00FD
:10341000216888602068006840F001002168086029
:10342000204601F049FAC7E77047000000B59BB09D
:103430004C2108A8FCF796FF1C2101A8FCF792FF7D
:103440001848089018480990052001900220029021
:103450000390012004900220059006900020079020
:103460000A9000210B910C9120210D9100210E91C9
:103470000F9110914FF480511191002112911391ED
:10348000149115911691179101AA01A908A8FFF7A7
:10349000E5FE20B14FF4927104A0FDF76DF81BB06A
:1034A00000BD000000400052044100522E2E5C2E50
:1034B0002E5C557365725C6273705C7372635C62E0
:1034C00073705F666D635F696F2E630000B587B0D0
:1034D00000BF3E48006840F008003C4908600846CC
:1034E000006800F00800019000BF00BF00BF084660
:1034F000006840F0100008600846006800F0100006
:10350000019000BF00BF00BF0846006840F04000C7
:1035100008600846006800F04000019000BF00BF4E
:1035200000BF0846006840F0800008600846006858
:1035300000F08000019000BF00BF00BF0846006897
:1035400040F4807008600846006800F480700190C4
:1035500000BF00BF00BF1D480C38006840F4805019
:103560001A490C3908600846006800F48050019040
:1035700000BF00BF022003900120049003200590AB
:103580000C2006904CF2B370029002A91048FDF78F
:1035900013FB4FF68070029002A90E48FDF70CFB5A
:1035A0000320029002A90C48FDF706FB4FF47F4070
:1035B000029002A90948FDF7FFFA40F2CF6002909D
:1035C00002A90748FDF7F8FA07B000BDE044025829
:1035D000000C02580010025800180258001C025833
:1035E0000020025829B9084A12688243064B1A6023
:1035F00004E0054A12680243034B1A60024A12684B
:10360000024B1A6070470000240000200010006088
:1036100010B53249096801F0004149B12F490968E4
:1036200041F000412D4A11608169891C816110BD02
:103630002A49083909682A4A11622849091F097864
:1036400082F824102549C91E0978916223490C315A
:103650000968D1622149891E098811861F490968B4
:1036600051631E49091D096891631C49103109689D
:10367000D1631CA200210BE0535C254CA36200BF68
:10368000234BDB6903F04003002BF9D04B1CD9B26C
:103690002929F1D300211F4A116000BF1D49096883
:1036A0000029FBD00E4A01681160416851608168B1
:1036B0009160C168D160016911614169516181699D
:1036C0009161C169D1610021124A116000BF1149A5
:1036D00009680029FBD000BFA9E700002CED00E03D
:1036E000081700200D0A456E7465722048617264E7
:1036F0004661756C745F48616E646C65722C205312
:10370000797374656D2048616C742E0D0A00000099
:10371000001001403C00002000B5B5B00120019030
:1037200000201F9001A8FDF7B9FE00BF65480068A2
:1037300040F00100634908600846006800F001009D
:10374000009000BF00BF00BF0846006840F00100C5
:1037500008600846006800F00100009000BF00BF4C
:1037600000BF58481030006840F010005549103133
:1037700008600846006800F01000009000BF00BF1D
:103780004FF40070309002203190012032900320DD
:1037900033900720349030A94B48FDF70DFA4FF4D1
:1037A000806030900720349030A94748FDF704FA34
:1037B000002204212520FDF7DEFB2520FDF7C7FBB5
:1037C0000C2300224FF4E131404802F0C1F93F4898
:1037D000006A40F040003D4908620846806940F0B8
:1037E000080088610846006840F02000086000BFBB
:1037F0003448006840F0020032490860084600681A
:1038000000F00200009000BF00BF00BF0846006843
:1038100040F0020008600846006800F002000090D6
:1038200000BF00BF00BF27480830006840F4802078
:103830002449083108600846006800F480200090A0
:1038400000BF00BF4FF48060309002203190012013
:103850003290032033900720349030A91C48FDF7A4
:10386000ABF94FF4006030900720349030A918482D
:10387000FDF7A2F9032204212720FDF77CFB272076
:10388000FDF765FB0C2300224FF41651114802F09E
:103890005FF910482030006840F040000D492031A9
:1038A00008600C481830006840F0080009491831D9
:1038B00008600848006840F020000649086035B0FC
:1038C00000BD0000E0440258000002580010014012
:1038D00000040258004800402DE9F0410446082C3D
:1038E00017DA0026FF27002508E0284600F062F8D6
:1038F00010B1701CC6B22F46681CC5B2082DF4DB8F
:10390000012E04D1A74202D10120BDE8F0810020A0
:10391000FBE7082C0BD1002000F04CF828B1012067
:1039200000F048F808B10120EFE70020EDE7092C8E
:103930000BD1012000F03EF828B1022000F03AF847
:1039400008B10120E1E70020DFE70020DDE700000B
:103950000024012080F3108800BFFEF7CFFC002078
:103960004FF0E02108614861886100BF08E04FF036
:10397000FF310E4840F824100D4840F82410641C14
:10398000082CF4D3002080F3108800BF4FF00160B2
:1039900045680146086880F3088800BF002080F36E
:1039A000148800BFA84700BFFEE7000080E100E0E8
:1039B00080E200E001460B4850F831000069094BF5
:1039C00003EBC1039B88184008B9002200E00122E4
:1039D000044800EBC1008079904201D1012070477A
:1039E0000020FCE7C05C00081FB5FDF78BFA012042
:1039F0008DF800004FF01050019012208DF8080053
:103A000003208DF80B0000208DF80F008DF80E00BC
:103A10008DF80D008DF8010001208DF80A000020BE
:103A20008DF809008DF80C006846FDF73DFA01207D
:103A30008DF800004FF0C04001900F208DF8080075
:103A400003208DF80B0001208DF80F0000208DF869
:103A50000E008DF80D0001208DF8010000208DF87A
:103A60000A008DF809008DF80C006846FDF71CFA75
:103A70000420FDF757FA1FBD00BFFEE770477047EF
:103A80002DE9F04104460E4600275548006800F035
:103A90000300032802D10120BDE8F08150482838F6
:103AA000006820F080604E4928390860FDF78EF9E3
:103AB000054606E0FDF78AF9401B022801D90320DC
:103AC000EAE7474828380068C0F3C0600028F1D111
:103AD00000BF4348006820F47C30216840EA013090
:103AE0003F490860A088401EC0F30800A168491E35
:103AF0004FF47E4202EA41210843A189491ED201C6
:103B000002EA01410843217C491E120202EA0161D6
:103B1000084333491031086000BF3148001D006878
:103B200020F0C000616908432D49091D086008465E
:103B3000006820F02000A16908432949091D086098
:103B40000846006820F0100008602548143000681E
:103B50004FF6F8718843E16940EAC1002049143109
:103B600008601F48001D006840F010001C49091D36
:103B700008602EB90846006840F40020086012E092
:103B8000012E08D11648001D006840F48010144929
:103B9000091D086007E01248001D006840F400108D
:103BA0000F49091D08600E482838006840F0806001
:103BB0000B4928390860FDF709F9054606E0FDF7CD
:103BC00005F9401B022801D9032065E7044828387D
:103BD0000068C0F3C0600028F1D038465CE7000000
:103BE000284402582DE9F04104460E460027554866
:103BF000006800F00300032802D10120BDE8F08135
:103C000050482838006820F080504E492839086014
:103C1000FDF7DCF8054606E0FDF7D8F8401B022862
:103C200001D90320EAE7474828380068C0F340700C
:103C30000028F1D100BF4348006820F07C70218843
:103C400040EA01503F490860A088401EC0F30800C8
:103C5000A168491E4FF47E4202EA41210843A1892E
:103C6000491ED20102EA01410843217C491E120289
:103C700002EA0161084333491831086000BF314846
:103C8000001D006820F44060616908432D49091D4A
:103C900008600846006820F40070A16908432949BB
:103CA000091D08600846006820F4807008602548F7
:103CB0001C3000684FF6F8718843E16940EAC100A2
:103CC00020491C3108601F48001D006840F48070C6
:103CD0001C49091D08602EB90846006840F48000A0
:103CE000086012E0012E08D11648001D006840F45B
:103CF00000001449091D086007E01248001D006813
:103D000040F080700F49091D08600E48283800688F
:103D100040F080500B4928390860FDF757F80546F8
:103D200006E0FDF753F8401B022801D9032065E7A0
:103D3000044828380068C0F340700028F1D03846A5
:103D40005CE700002844025800B587B000BF0D486A
:103D5000006840F002000B4908600846006800F067
:103D60000200019000BF00BF0120039000200490DA
:103D7000032005900420029002A90348FCF71CFFD1
:103D800007B000BDE044025800040258704700002C
:103D90000420014908607047180402584FF480203D
:103DA00001490860704700001804025838B50546FC
:103DB0000C46009406E0284600F006FA012801D1DE
:103DC000002038BD0098411E00910028F3D1401E0C
:103DD000F7E72DE9F84304460E4690460020306090
:103DE00041466846FFF7E2FF18B14FF0FF30BDE8EB
:103DF000F8839DF80000182813D006DC012809D0AC
:103E0000022809D0042820D109E041281AD06128CD
:103E10001BD118E080251BE04FF4806518E00020DE
:103E2000E5E741466846FFF7C1FF40B99DF800004D
:103E3000182804D14FF0FF3030600020D7E74FF052
:103E4000FF30D4E700BF0120D1E74FF0FF30CEE7CD
:103E500000BF9DF800002070012709E0E0194146ED
:103E6000FFF7A4FF10B14FF0FF30C0E7781C87B216
:103E7000681D8742F2DB6178A07880F0FF00814204
:103E800002D04FF0FF30B2E7E81C205C4FEA002977
:103E9000281D205C48441FFA80F92946E01CFCF7E5
:103EA00007FB484502D04FF0FF30A0E73560002007
:103EB0009DE7000010B50248FFF78CF810BD000028
:103EC0001806002030B585B00446002000900C2074
:103ED00001904FF480700290002003904FF48050C6
:103EE0000490E06840F08000E060E06820F040006E
:103EF000E0606946204600F0F9F8084A0C212046A7
:103F000000F00EF80546E06820F08000E060B5F1B2
:103F1000007F00D10025284605B030BD00E1F50541
:103F20002DE9F04305460F46904666480068C008F4
:103F30004FF47A71B0FBF1F000FB08F900BFB9F162
:103F40000000A9F1010903D14FF00040BDE8F08362
:103F50006E6B5D4830400028F1D006F40050002818
:103F6000EDD1686B00F0040010B10420A863EDE708
:103F7000686B00F0010010B10120A863E6E7524829
:103F80008030A863284600F0A3F8B84201D0012091
:103F9000DCE70021284600F09FF804464B4820400B
:103FA00008B90020D2E704F00040B0F1004F02D180
:103FB0004FF00070CAE704F08040B0F1804F01D1AB
:103FC0004020C3E704F00050B0F1005F01D1802031
:103FD000BCE704F08050B0F1805F02D14FF48070F4
:103FE000B4E704F00060B0F1006F02D14FF400704C
:103FF000ACE704F08060B0F1806F02D14FF48060D4
:10400000A4E704F08070B0F1807F02D14FF400602B
:104010009CE704F40000B0F5000F02D14FF480508B
:1040200094E704F48000B0F5800F02D14FF4005003
:104030008CE704F40010B0F5001F02D14FF480406B
:1040400084E704F48010B0F5801F02D14FF40040E3
:104050007CE704F48020B0F5802F02D14FF40030CB
:1040600074E704F40030B0F5003F02D14FF4802033
:104070006CE704F48030B0F5803F02D14FF40020AB
:1040800064E704F40040B0F5004F02D14FF4801013
:104090005CE704F48040B0F5804F02D14FF400108B
:1040A00054E704F40050B0F5005F02D14FF48000F3
:1040B0004CE704F00800082801D1000546E74FF45A
:1040C000803043E7340000204500200008E0FFFD79
:1040D00001460869C0B27047024602F11400431855
:1040E000186870470146D1F88000704710B5024645
:1040F000002308689060D1E901042043CC68204384
:104100000C6920430343D068024C20401843D06020
:10411000002010BDC0E0FEFF02460868C2F8800023
:10412000002070472DE9F04105466C6AA86A2028F6
:1041300017D300270FE02868FFF7D4FF0646267044
:10414000641C300A2070641C300C2070641C300E1B
:104150002070641C7F1C082FEDD36C62A86A203885
:10416000A862BDE8F081F8B50546EC69286A202808
:1041700021D3002619E020780090641C2078009953
:1041800041EA00200090641C2078009941EA004038
:104190000090641C2078009941EA00600090641C43
:1041A00069462868FFF7B8FF761C082EE3D3EC6158
:1041B000286A20382862F8BD704710B504462046AA
:1041C00000F00EF8002010BD10B504462146002076
:1041D00001F060FD08B1012010BD0020FCE70000E7
:1041E00000BF0849C96901F080010029F9D00549DB
:1041F000886200BF0349C96901F040010029F9D074
:10420000704700000010014070B502460C460021C6
:10421000002500231078302843D15078782802D028
:10422000507858283DD1907808B9002070BD0221FF
:1042300030E0505C10B9236001252DE0505C41282E
:1042400002DB505C46280BDD505C612802DB505CD1
:10425000662805DD505C302819DB505C392816DCF7
:10426000505C302805DB505C392802DC505C30386B
:104270000AE0505C412805DB505C462802DC505CBB
:10428000373801E0505C573800EB031301E000259C
:1042900002E0491C0B29CCD300BF0B2934D30025E5
:1042A00032E000212AE0505C10B92360012527E0AC
:1042B000505C6B2802D0505C4B2804D119B19B0292
:1042C000236001251CE0505C6D2802D0505C4D2815
:1042D00004D119B11B052360012511E0505C302881
:1042E00009DB505C392806DC505C303803EB830670
:1042F00000EB460301E0002502E0491C0B29D2D364
:1043000000BF0B2900D3002528468FE710B5FCF726
:1043100063FD0448007800B910BD00F005F800BF47
:10432000FAE700002000002010B51B48006840B1EB
:1043300019480068401E1849086010B90120174943
:104340000870002408E004EB4401154A02EB8100E8
:1043500001F032FC601CC4B2042CF4DB114800688C
:10436000401C10490860084600686FF00041884210
:1043700002D100200B49086001F0D6FB0A48007802
:10438000401CC0B2084908700A2803DB00200870EE
:1043900001F0C6FB10BD0000140000201800002032
:1043A000E80500201C0000202100002010B59CB072
:1043B000202114A8FBF7D6FF4C2101A8FBF7D2FF60
:1043C00000245548006820F004005349086000BFED
:1043D000002000905148006820F001004F4908601B
:1043E0000846006800F0010000904B480C3000685F
:1043F00040F4404048490C3108600846006800F429
:104400004040009000BF00BF00BF43480C30006830
:1044100000F40050B0F5005FF7D1012001900004D6
:10442000029000200490089002200A9002210B9133
:1044300005210C91A0210D9102210E9110910421D2
:104440000F91002112910821119101A8FEF7CEF9D8
:1044500004461CB18D2132A0FCF78EF83F20149049
:1044600003201590002016900820179040201890E7
:10447000199000011A9040201B90042114A8FDF708
:10448000ADFD04461CB1A82125A0FCF775F82A480B
:10449000006840F080002849086000BF2648F430DA
:1044A000006840F002002449F431086008460068C2
:1044B00000F00200009000BF00BFFCF707FA00BF49
:1044C0001D48DC30006840F000501B49DC310860BA
:1044D0000846006800F00050009000BF00BF00BF19
:1044E0000846006840F0804008600846006800F018
:1044F0008040009000BF00BF00BF0846006840F049
:10450000004008600846006800F00040009000BFCE
:1045100000BF1CB010BD00000C4802582C0400580D
:104520002E2E5C2E2E5C557365725C6273705C621D
:1045300073702E6300000000004402583648006883
:1045400040F47000344908603448006800F00F00FF
:10455000072806D23148006820F00F00C01D2F49FF
:1045600008602F48006840F001002D4908600020D5
:104570002B49103108602A4800682A490840284918
:1045800008602648006800F00F00072806D9234875
:10459000006820F00F00C01D20490860002020495D
:1045A00018310860091D0860091D08601E481C4973
:1045B000283108601D48091D08601D48091D086054
:1045C0000020091D08601A48091D08600020091D07
:1045D00008601748091D08600020091D0860104880
:1045E000006820F480200E49086000200C496031EA
:1045F0000860104800686FF30F00B0F1005F02D24E
:1046000001200D49086043F2D2000C4908604803BC
:10461000014980390860704788ED00E000200052B1
:10462000004402587FEDF6EA000202020000FF019A
:10463000800201010010005C08810051004000521E
:1046400070B5002500264FF08044206900F0020577
:10465000E06800F002065DB156B14FF6FD702061D2
:10466000E0684FF6FD710840E0601E480068804732
:10467000206900F00405E06800F004065DB156B161
:104680004FF6FB702061E0684FF6FB710840E06078
:10469000154800688047206900F00805E06800F0D0
:1046A00008065DB156B14FF6F7702061E0684FF62D
:1046B000F7710840E0600D4800688047206900F00D
:1046C0001005E06800F010065DB156B14FF6EF70CE
:1046D0002061E0684FF6EF710840E0600448006830
:1046E000804770BD04000020080000200C0000205E
:1046F0001000002010B50268294B98420ED0B0F18E
:10470000804F0BD0274B984208D0274B984205D0BA
:10471000264B984202D0264B984203D122F07002D9
:104720004B681A431E4B984217D0B0F1804F14D0FB
:104730001C4B984211D01C4B98420ED01B4B9842F8
:104740000BD01B4B984208D01A4B984205D01A4BFD
:10475000984202D0194B984203D122F44072CB68A0
:104760001A4322F080034C6943EA040202608B681A
:10477000C3620B6883620A4B98420BD00C4B984281
:1047800008D00C4B984205D00B4B984202D00B4BF3
:10479000984201D10B6903630123436110BD0000FE
:1047A000000001400004004000080040000C0040F0
:1047B0000004014000400140004401400048014025
:1047C00090F8281001F0010139B10168496821F41D
:1047D0000031C26A11430268516090F8281001F05C
:1047E0000201022907D10168496821F48031026B76
:1047F00011430268516090F8281001F00401042967
:1048000007D10168496821F48021426B1143026895
:10481000516090F8281001F00801082907D10168BB
:10482000496821F40041826B11430268516090F89D
:10483000281001F01001102907D10168896821F4BE
:104840008051C26B11430268916090F8281001F00A
:104850002001202907D10168896821F40051026CE8
:1048600011430268916090F8281001F0400140293E
:1048700013D10168496821F48011426C1143026828
:104880005160416CB1F5801F07D10168496821F47E
:10489000C001826C11430268516090F8281001F049
:1048A0008001802907D10168496821F40021C26C88
:1048B000114302685160704738B504460020C4F8BF
:1048C0008800FCF783FA05462068006800F00800BD
:1048D00008280CD16FF07E402B4600224FF40011C7
:1048E0000090204600F0F0FA08B1032038BD20689F
:1048F000006800F0040004280CD16FF07E402B46C5
:1049000000224FF480010090204600F0DDFA08B14B
:104910000320EBE72020C4F88000C4F8840000BF27
:10492000002084F87C0000BF00BFDFE72DE9F04FD6
:104930008BB0054600200890F9492868884200D1CC
:1049400000E000BF2969A868084369690843E9696C
:1049500040EA0108686E40EA080828680068F149E2
:10496000084040EA0800296808602868406820F488
:104970004050E968084329684860D5F81880E8493C
:104980002868884202D0286A40EA080828688068B7
:10499000E549084040EA0800296888602868C06A3C
:1049A00020F00F00696A08432968C86200BFDF4928
:1049B0002868884220D1DE48006800F038001828B6
:1049C00011D005DC48B1082809D0102811D108E021
:1049D00020280AD028280CD109E001240BE0042467
:1049E00009E0082407E0102405E0202403E0402427
:1049F00001E0802400BFF8E0CE492868884219D140
:104A0000CB48006800F00700062810D2DFE800F06D
:104A1000030507090B0D00240BE0042409E008241A
:104A200007E0102405E0202403E0402401E0802476
:104A300000BFDAE0C0492868884219D1BC48006844
:104A400000F00700062810D2DFE800F00305070990
:104A50000B0D00240BE0042409E0082407E01024D7
:104A600005E0202403E0402401E0802400BFBCE0F6
:104A7000B2492868884219D1AD48006800F00700A3
:104A8000062810D2DFE800F0030507090B0D00240B
:104A90000BE0042409E0082407E0102405E02024AA
:104AA00003E0402401E0802400BF9EE0A449286880
:104AB000884219D19E48006800F00700062810D2ED
:104AC000DFE800F0030507090B0D00240BE00424C8
:104AD00009E0082407E0102405E0202403E0402436
:104AE00001E0802400BF80E096492868884220D1F8
:104AF0008F48006800F03800182811D005DC48B154
:104B0000082809D0102811D108E020280AD0282828
:104B10000CD109E001240BE0042409E0082407E09B
:104B2000102405E0202403E0402401E0802400BF9D
:104B30005BE085492868884219D17D48006800F00B
:104B40000700062810D2DFE800F0030507090B0D67
:104B500000240BE0042409E0082407E0102405E009
:104B6000202403E0402401E0802400BF3DE0774999
:104B70002868884219D16E48006800F007000628AE
:104B800010D2DFE800F0030507090B0D00240BE04D
:104B9000042409E0082407E0102405E0202403E0B1
:104BA000402401E0802400BF1FE05D49286888425E
:104BB0001AD15F48001D006800F00700062810D2D7
:104BC000DFE800F0030507090B0D02240BE00424C5
:104BD00009E0082407E0102405E0202403E0402435
:104BE00001E0802400BF00E0802400BF4C49286819
:104BF00088427DD1102C1AD006DC022C09D0042C5E
:104C00000BD0082C29D10DE0202C21D0402C24D110
:104C100020E0FCF701FA064623E005A8FCF70EFAAF
:104C2000069E1EE002A8FCF721FB039E19E0404807
:104C300054380068C0F3401040B13D485438006813
:104C4000C0F3C101424820FA01F600E0404E08E0FE
:104C5000404E06E04FF4004603E000260120089095
:104C600000BF00BF002E10D03B49686A31F8100029
:104C7000B6FBF0F9686800EB4000484503D8686867
:104C80000003484502D20120089009E13249686AD0
:104C900031F810C06246002330461946FBF718FB76
:104CA0004FF480730022A0FB03AC01FB03C100FBA7
:104CB000021B02220023D5F804C060461946FBF708
:104CC00007FB1AEB00004BF1000BCDE9000BD5F808
:104CD00004C0624600235946FBF7FAFA0746B7F5C7
:104CE000407F06D3B7F5801F03D22868C760D7E09E
:104CF00002E001200890D3E0E869B0F5004F7DD1D3
:104D0000082C39D005DC4CB3012C2CD0042C4CD110
:104D10002DE0102C35D0202C42D0402C45D141E044
:104D2000000C0058F369FFCFFFF4FF1100100140A1
:104D3000544402580044004000480040004C0040E9
:104D4000005000400014014000780040007C00400A
:104D50000090D00300093D00005D0008FFE7FDF76B
:104D60000BFC064625E0FDF719FC064621E005A8E8
:104D7000FCF764F9069E1CE002A8FCF777FA039E94
:104D800017E04D480068C0F3401038B14A48006849
:104D9000C0F3C101494820FA01F600E0474E08E09F
:104DA000474E06E04FF4004603E00026012008903D
:104DB00000BF00BF0EB34349686A31F81000B6FB6C
:104DC000F0F04000696800EB5100B0FBF1F087B2F1
:104DD000102F10D3B7F5803F0DD24FF6F07038404A
:104DE0000990C7F342010998084309900998296876
:104DF000C86055E002E00120089051E0082C1AD06C
:104E000005DC5CB1012C0DD0042C2DD10EE0102C52
:104E100016D0202C23D0402C26D122E0FDF7ACFB6D
:104E2000064625E0FDF7BAFB064621E005A8FCF79B
:104E300005F9069E1CE002A8FCF718FA039E17E08D
:104E40001D480068C0F3401038B11B480068C0F32B
:104E5000C1011A4820FA01F600E0184E08E0184E89
:104E600006E04FF4004603E000260120089000BF52
:104E700000BFAEB11349686A31F81000B6FBF0F01C
:104E8000696800EB5100B0FBF1F087B2102F05D339
:104E9000B7F5803F02D22868C76001E00120089082
:104EA0000120A5F86A00A5F868000020E8662867D8
:104EB00008980BB0BDE8F08F004402580090D00372
:104EC00000093D00005D00082DE9F04104460D4653
:104ED00017469846069E4AE0701C002847D0FBF70C
:104EE00075FFA0EB0800B04200D8C6B92068006882
:104EF00020F4D070216808602068806820F00100EC
:104F0000216888602020C4F88000C4F8840000BFB5
:104F1000002084F87C0000BF0320BDE8F0812068F9
:104F2000006800F0040010B32068C069C0F3C0201E
:104F3000E8B14FF40060216808622068006820F43E
:104F4000D070216808602068806820F00100216826
:104F500088602020C4F88000C4F88400C4F8880069
:104F600000BF002084F87C0000BF0320D5E7206844
:104F7000C0692840A84201D1012000E00020B842C9
:104F8000AAD00020C9E7000010B5024800F031F8AF
:104F900010BD00009406002010B5024800F029F86A
:104FA00010BD0000C00E002070B504460D46012063
:104FB00000F073FA668B002000F06FFA0EB9002043
:104FC00070BD218BA068405C2870012000F065FA5C
:104FD000208B401C80B22083E189884201DB0020C5
:104FE0002083608B401E6083002000F056FA012071
:104FF000E6E72DE9F04104462068C56920680668A7
:105000002068D0F8088005F02000D8B12068406AF8
:10501000C7B2E18AA0684754E08A401C80B2E082AF
:10502000E189884201DB0020E082608BE1898842CF
:1050300002DA608B401C6083606A10B13846616A96
:10504000884700BF05F0800028B306F0800010B349
:10505000A08A60B92068006820F08000216808609C
:105060002068006840F040002168086013E00120DB
:1050700084F82800618A6068405C21688862608AE0
:10508000401C80B26082A189884201DB00206082DE
:10509000A08A401EA08205F0400018B306F0400030
:1050A00000B3A08A68B92068006820F04000216839
:1050B0000860206A08B1206A8047002084F8280030
:1050C00010E0618A6068405C21688862608A401CE8
:1050D00080B26082A189884201DB00206082A08AC0
:1050E000401EA0822068006A40F00100216808622A
:1050F0002068006A40F00200216808622068006AA7
:1051000040F00400216808622068006A40F008004E
:10511000216808622068006A40F010002168086277
:105120002068006A40F04000216808622068006A38
:1051300040F48070216808622068006A40F40070C2
:10514000216808622068006A40F400302168086223
:105150002068006A40F48010216808622068006AB4
:1051600040F0200021680862BDE8F08119481A4922
:1051700008601A4848601A4888604FF48060888147
:10518000C881002008824882C882088348838882B8
:10519000C8610862486281F8280012481249086014
:1051A00012484860124888604FF480608881C88146
:1051B000002008824882C8820883488388820D487C
:1051C000C8610D4808620D484862002081F8280037
:1051D000704700000010014094060020C006002027
:1051E000C00A002000480040C00E0020EC0E002045
:1051F000EC120020913D00089D3D00088D3D000807
:1052000010B503460C46194644F4807200BF4900AD
:10521000520002F4807000B1491C01F4803010B1DA
:1052200041F22100414002F480300028EFD088B2E2
:1052300010BD00BFFEE700002DE9F04FADF23C4D80
:1052400006468A460020039001900090D0460790C1
:105250000590049000BF002700200690B34600BFD1
:105260004FF4A00208A90DA8FEF7B3FD10B1012864
:105270007ED1B4E0002005900898B0F1FF3F01D046
:1052800070B907E00620FEF798FF00200DF23C4DB4
:10529000BDE8F08F0620FEF790FF012006909CE00D
:1052A0009DF83500F9B2884203D01520FEF785FF3E
:1052B00092E0002F68D19DF8370000285DD00024CF
:1052C0000DF1370505E015F8012B2046641C5A49FD
:1052D0000A54287808B1402CF5DB00222046641CD3
:1052E00055490A5400246D1C05E015F8012B204691
:1052F000641C09A90A542878202801D0102CF4DB5A
:1053000000222046641C09A90A5403A909A8FEF733
:105310007BFF4A490398884208DD1820FEF74DFFBD
:105320001820FEF74AFF4FF0FF30AFE70398C11790
:1053300000EBD131491401910398C11700EBD13131
:105340004914A0EB41410091002404E008EB4440E3
:1053500000F02EF9641C01988442F7D3009818B12C
:1053600008EB444000F024F90620FEF726FF00E099
:105370003EE04320FEF721FF2BE00620FEF71DFF55
:1053800001200690079028E00DF137015846089A51
:10539000FAF7CFFF02962A49096808EB0100089A3C
:1053A000029900F017FC81462548006808990844D6
:1053B00023490860B9F1000F08D01820FEF7FDFE60
:1053C0001820FEF7FAFE6FF001005FE70620FEF7F7
:1053D000F4FE7F1C0120049000BF00BF1DE01820D8
:1053E000FEF7EBFE1820FEF7E8FE6FF002004DE737
:1053F0000498002802DD0598401C059005980528B2
:1054000007DD1820FEF7D9FE1820FEF7D6FE002093
:105410003CE74320FEF7D1FE00BF00BF06980028FE
:105420003FF41EAF00BF00BF079800283FF413AF42
:1054300000BF00BF039829E73801002001002000C9
:105440000000002002480068C0F3022070470000FE
:105450000CED00E010B5002804DB0A07130E054A26
:10546000135406E00A07140E034A00F00F031B1F33
:10547000D45410BD00E400E018ED00E002E008C8DC
:10548000121F08C1002AFAD170477047002001E0BE
:1054900001C1121F002AFBD1704780F310887047AA
:1054A00070B503469818B0F1026F01D9032070BDA2
:1054B0000AB90020FBE7012600240BE01D780878DC
:1054C000A84204D0FF2D01D00220F0E700265B1C8B
:1054D000491C641C9442F1D3012E01D10020E6E75F
:1054E0000120E4E770B50546304800EB0514284676
:1054F000FEF7F2F900283ED02079052802DA0520CF
:10550000207152E020790A2803DA2079401C2071AA
:105510004BE0A07A38B90120A07205EB4501491C87
:10552000C8B200F0EDFA208900283EDDE08821892C
:1055300088420DDAE088401C80B2E08021898842F0
:1055400033D105EB4501C91CC8B200F0D9FA2CE0F3
:10555000E07A002829DD207B401CC0B22073E17A6C
:10556000884222DB0020207305EB4501491CC8B2AC
:1055700000F0C6FA19E02079052802DD0520207127
:1055800010E0207918B12079401E20710AE0A07A3D
:10559000012807D10020A07205EB4501891CC8B283
:1055A00000F0AEFA0020E080207370BD38050020C6
:1055B000F0B587B004460025002600200190FBF7D7
:1055C000CBFA204600F01AF805460126002002908A
:1055D00020200690B4F1016F02D30220039001E075
:1055E000012003900495059601A902A8FBF778F91C
:1055F0000746FBF713FA384607B0F0BD0146002016
:10560000384A914202D2B1F1006F05D2364A914236
:1056100004D2B1F1016F01D3002062E0334A91421C
:1056200002D2304A914205D2314A914204D22E4AE6
:10563000914201D3012054E02E4A914202D22B4ADA
:10564000914205D22C4A914204D2294A914201D377
:10565000022046E0294A914202D2264A914205D2CE
:10566000274A914204D2244A914201D3032038E0D0
:10567000244A914202D2214A914205D2224A9142C1
:1056800004D21F4A914201D304202AE01F4A9142CA
:1056900002D21C4A914205D21D4A914204D21A4AB2
:1056A000914201D305201CE01A4A914202D2174AC6
:1056B000914205D2184A914204D2154A914201D32F
:1056C00006200EE0B1F1016F02D2124A914205D2DA
:1056D000124A914204D2104A914201D3072000E0BD
:1056E00007207047000002080000120800000408AC
:1056F0000000140800000608000016080000080852
:105700000000180800000A0800001A0800000C0831
:1057100000001C0800000E0800001E08FFFF1F0804
:1057200010B5FEF761F9FAF767FEFBF761FBFEF7CC
:105730003DFE00F00BF800F0ADF800F05BF900F072
:10574000ADF900F017F800F047F910BD0748006800
:1057500040F080700549086000200549486008460F
:10576000006840F00100086070470000FCED00E0B8
:10577000001000E010B5FDF7A9FEFDF757FE40F65A
:10578000147003490860084600680249086010BDAB
:105790002400002000100060F0B595B04C2102A854
:1057A000FAF7E0FD4FF0804400BF2948006840F060
:1057B0000100274908600846006800F001000190D8
:1057C00000BF00BF234884420BD02348844208D046
:1057D0002248844205D02248844202D02148844293
:1057E00003D121480068460802E01F4800684608C7
:1057F0001E48B6FBF0F0401E87B2B4F1804F02D0D5
:105800001B48844202D14FF0FF3501E04FF6FF758F
:105810000294039705950021069104910791802138
:10582000089102A8FDF76DFD20B14FF40C7111A095
:10583000FAF7A2FE022200211C20FBF79CFB1C2091
:10584000FBF785FB02A8FDF795FD15B0F0BD000044
:10585000E8440258000001400004014000400140BB
:1058600000440140004801403400002040420F0045
:10587000000C00402E2E5C2E2E5C557365725C620F
:1058800073705C7372635C6273705F74696D657270
:105890002E63000010B500F063F800F001F810BDB1
:1058A00010B586B000BF2C48006840F002002A49BD
:1058B00008600846006800F00200009000BF00BFCA
:1058C00000BF0846006840F0040008600846006811
:1058D00000F00400009000BF00BF00BF0846006851
:1058E00040F0400008600846006800F0400000906A
:1058F00000BF00BF00BF0846006840F0800008609D
:105900000846006800F08000009000BF00BF00BFA4
:105910000846006840F4807008600846006800F49B
:105920008070009000BF00BF002002900390032011
:10593000049000240CE0094800EBC400808801902A
:10594000064951F8340001A9FBF736F9601CC4B2CE
:10595000082CF0DB06B010BDE0440258C05C000823
:1059600010B500201A498872C8720873002418E024
:105970006420184901EB041108810220154901EB4C
:10598000041108710020134901EB041188721149B8
:1059900001EB0411C8720F4901EB04110873601C7C
:1059A000C4B20A2CE4DB06226421032000F0BEF816
:1059B00006226421042000F0B9F8062264210520A3
:1059C00000F0B4F806226421104600F0AFF810BDD4
:1059D000D80500203805002010B5012000F071F82E
:1059E000022000F06EF8032000F06BF8042000F0B5
:1059F00068F810BD70B5002416E0002004EB4401E7
:105A0000214A02EB8101486004EB440102EB810171
:105A1000886004EB440102EB8101487004EB44010F
:105A200002F82100601CC4B2042CE6DB17480068B1
:105A30004FF47A72B0FBF2F1481EB0F1807F00D3D0
:105A40001BE0481E4FF0E022506150170F22002843
:105A500004DB13071D0E0E4B1D5406E013071E0E2C
:105A60000C4B00F00F052D1F5E5500BF00204FF0BE
:105A7000E02290610720106100BF012006490870F4
:105A8000FFF78AFE70BD0000E8050020340000200A
:105A900000E400E018ED00E02000002010B5FFF762
:105AA00065FBFDF739FEFEF74FF910BD10B5002478
:105AB00004E02046FFF716FD601CC4B20A2CF8DB98
:105AC00010BD10B50446012C04D101210002FDF7E0
:105AD00089FD13E0022C04D101214802FDF782FD6B
